:100000000C9422010C9466020C943F010C943F0165
:100010000C943F010C943F010C943F010C943F0160
:100020000C943F010C943F010C943F010C943F0150
:100030000C943F010C943F010C943F010C943F0140
:100040000C941C020C943F010C943F010C943F0152
:100050000C943F010C943F010C943F010C943F0120
:100060000C943F010C943F01000000000000005F71
:1000700000000007000700147F147F14242A7F2A41
:10008000122313086462364955225000050300000C
:10009000001C2241000041221C0014083E081408E4
:1000A000083E0808005030000008080808080060F2
:1000B00060000020100804023E5149453E00427F86
:1000C000400042615149462141454B311814127F8D
:1000D0001027454545393C4A494930017109050316
:1000E0003649494936064949291E0036360000007E
:1000F0005636000008142241001414141414004150
:100100002214080201510906324979413E7E11113B
:10011000117E7F494949363E414141227F4141227A
:100120001C7F494949417F090909013E4149497AF2
:100130007F0808087F00417F41002040413F017F48
:10014000081422417F404040407F020C027F7F0420
:1001500008107F3E4141413E7F090909063E415159
:10016000215E7F09192946464949493101017F012C
:10017000013F4040403F1F2040201F3F4038403F4C
:100180006314081463070870080761514945430068
:100190007F41410002040810200041417F00040219
:1001A0000102044040404040000102040020545439
:1001B00054787F48444438384444442038444448C0
:1001C0007F3854545418087E0901020C5252523E92
:1001D0007F0804047800447D40002040443D007FB7
:1001E0001028440000417F40007C041804787C08FB
:1001F00004047838444444387C1414140808141453
:10020000187C7C080404084854545420043F44409B
:10021000203C4040207C1C2040201C3C4030403C86
:1002200044281028440C5050503C4464544C440022
:100230000836410000007F00000041360800080831
:100240002A1C080011241FBECFEFD8E0DEBFCDBFAF
:1002500011E0A0E0B1E0E2E3FAE002C005900D9207
:10026000AE34B107D9F721E0AEE4B1E001C01D9290
:10027000A236B207E1F70E9420030C9417050C94F4
:1002800000003D98459A08953D9A459808953C98F8
:10029000449A08953C9A44980895CF93DF93D82FB9
:1002A000C8E0D7FF23C00E94470185E18A95F1F796
:1002B00000000E94410185E18A95F1F700000E944B
:1002C0004401DD0FC15069F70E94470185E18A951D
:1002D000F1F700000E94410185E18A95F1F70000E5
:1002E0000E94440180E0DF91CF9108950E944A016D
:1002F000DCCFCF93DF93D82FC62F0E9447010E94F7
:10030000410185E18A95F1F700000E944A0185E1EB
:100310008A95F1F700000E94440185E18A95F1F782
:10032000000088E70E944D018D2F0E944D018C2F07
:100330000E944D010E944A0185E18A95F1F7000073
:100340000E94410185E18A95F1F700000E94470172
:1003500085E18A95F1F70000DF91CF9108950F9321
:100360001F93CF93DF9390EE980F9F3508F080E2B4
:10037000805295E0899FE001112410E000E0C85907
:10038000DF4FFE01E00FF11F649180E40E947901CC
:100390000F5F1F4F05301105A1F760E080E4DF918A
:1003A000CF911F910F910C947901CF93843608F06F
:1003B00083E66AE00E94DA04C92F805D0E94AF01E3
:1003C00080E38C0FCF910C94AF01CF93DF93EC01BE
:1003D0008991882319F00E94AF01FACFDF91CF9164
:1003E0000895682F80E00C9479018770806B0E94DB
:1003F000F10180E00E94F10180E10C94F10141E003
:1004000050E002C0440F551F8A95E2F733E020E028
:1004100086B190E084239523892B09F42F5F8FE325
:100420009FE10197F1F700C00000315089F781E0AA
:10043000223008F480E008951F920F920FB60F92B9
:1004400011242F933F938F939F93AF93BF938091EA
:10045000550190915601A0915701B09158013091EA
:10046000540123E0230F2D3758F50196A11DB11D2E
:10047000209354018093550190935601A093570106
:10048000B09358018091500190915101A091520177
:10049000B09153010196A11DB11D8093500190931D
:1004A0005101A0935201B0935301BF91AF919F911D
:1004B0008F913F912F910F900FBE0F901F90189525
:1004C00026E8230F0296A11DB11DD2CF1F920F92D5
:1004D0000FB60F921124BF92CF92DF92EF92FF924C
:1004E0000F931F932F933F934F935F936F937F933C
:1004F0008F939F93AF93BF93EF93FF93CF93DF932C
:10050000CDB7DEB72597DEBFCDBF40910501309155
:100510004F012091060190914E0150910401842FCA
:10052000830F820F890F511101C0809549833A834F
:100530002B839C838D834FB7F894FDB2E0906E00BF
:10054000B0906F007091700060917A005091C1007E
:100550001DBA10926E0010926F0010927000809180
:100560007A00877F80937A008091C1008F71809399
:10057000C10031E03CBBCE010196DC014A9901C0CB
:10058000FDCF8EE123D0FD01529A5A9880E51ED00E
:100590005A9A80E51BD095E0219118E0220F5A98D5
:1005A00082E314D05A9A18F486E410D002C08CE189
:1005B0000DD01A9599F79A9579F75A9885E306D050
:1005C0005A9A85E003D052985A980CC0882349F073
:1005D00003E00A95F1F700000000000000008A9592
:1005E000B9F708953CBB00003CBBFDBAE0926E0039
:1005F000B0926F007093700060937A005093C100C6
:100600004FBF0F900F900F900F900F90DF91CF91F1
:10061000FF91EF91BF91AF919F918F917F916F91DA
:100620005F914F913F912F911F910F91FF90EF900C
:10063000DF90CF90BF900F900FBE0F901F90189536
:10064000789484B5826084BD84B5816084BD85B5AD
:10065000826085BD85B5816085BD80916E008160B9
:1006600080936E001092810080918100826080935F
:100670008100809181008160809381008091800061
:100680008160809380008091B10084608093B1008C
:100690008091B00081608093B00080917A00846086
:1006A00080937A0080917A00826080937A008091B2
:1006B0007A00816080937A0080917A0080688093CC
:1006C0007A001092C10087B1897F87B988B18660AE
:1006D00088B952985A9880E480937C0087E8809388
:1006E0007A0087B18F7C87B988B1806388B90FEFB2
:1006F00010E722E0015010402040E1F700C0000068
:100700003FEF89EF90E0315080409040E1F700C02A
:1007100000008EEA0E94F10185ED0E94F10180E85F
:100720000E94F10188EA0E94F1018FE30E94F10129
:1007300083ED0E94F10180E00E94F10180E40E94BB
:10074000F1018DE80E94F10184E10E94F10180E253
:100750000E94F10180E00E94F10181EA0E94F10112
:1007600088EC0E94F1018AED0E94F10182E10E9471
:10077000F10181E80E94F1018FEC0E94F10189ED05
:100780000E94F10181EF0E94F1018BED0E94F101C5
:1007900080E40E94F10184EA0E94F10186EA0E944D
:1007A000F1018FEA0E94F101C0E08C2F0E94F50157
:1007B000D0E060E080E40E947901DF5FD038C9F7C3
:1007C000CF5FC83091F782E08093690081E08DBBF4
:1007D0007894CC24CA9483E0D82EE12CF12CC0E08C
:1007E000D0E080917C00887F80937C0080917A00AB
:1007F000806480937A0080917A0086FDFCCF00911E
:1008000078001091790081E00E94FF0180936101DE
:10081000809161019801813009F0BEC0A2E3B0E08F
:100820000E940805A70196010E94E604233308F000
:1008300022E32093060182E00E94FF0180930401DD
:100840002FB7F8948091550190915601A0915701CE
:10085000B09158012FBFE09B0DC0E89880935D01D7
:1008600090935E01A0935F01B09360011092030129
:1008700021E02CBB20910301211119C040915D01A1
:1008800050915E0160915F01709160018C019D014A
:10089000041B150B260B370BB901A8014436510573
:1008A0006105710520F0E89A21E020930301409151
:1008B000590150915A0160915B0170915C018C016A
:1008C0009D01041B150B260B370BB901A801483CF1
:1008D00051056105710508F459C080935901909341
:1008E0005A01A0935B01B0935C01A0906101B090AC
:1008F0000601009105011091040180E00E94F501BC
:1009000021E087E091E0A21611F089E191E00E94D8
:10091000E50180910201B81681F0B092020182E0F7
:100920000E94F5018AE291E00E94E5018B2D0E9470
:10093000D50181E391E00E94E50180910101081752
:1009400081F00093010184E00E94F50184E391E0CD
:100950000E94E501802F0E94D5018BE391E00E9467
:10096000E50180910001181789F01093000186E0DD
:100970000E94F5018EE391E00E94E50186E491E09A
:10098000111102C08AE491E00E94E501209709F468
:1009900028CF0E94000025CFA4E6B0E00E94080501
:1009A000A70196010E94E604253608F024E620936C
:1009B000050141CF991B79E004C0991F961708F0F3
:1009C000961B881F7A95C9F780950895A1E21A2E83
:1009D000AA1BBB1BFD010DC0AA1FBB1FEE1FFF1FE3
:1009E000A217B307E407F50720F0A21BB30BE40B33
:1009F000F50B661F771F881F991F1A9469F760957A
:100A00007095809590959B01AC01BD01CF01089533
:100A1000A29FB001B39FC001A39F700D811D11243F
:100A2000911DB29F700D811D1124911D0895F894A0
:020A3000FFCFF6
:100A3200FFFFFF010132194D6F64653A205375685B
:100A42007520202020202020004D6F64653A204B25
:100A5200656C656D626170616E00537568753A20F0
:100A62000020430048756D203A2000202500436B8A
:0E0A720073756D3A20004F4B20004552520024
:00000001FF
